{
  "contractName": "Dex",
  "abi": [
    {
      "inputs": [],
      "stateMutability": "nonpayable",
      "type": "constructor"
    },
    {
      "anonymous": false,
      "inputs": [
        {
          "indexed": false,
          "internalType": "uint256",
          "name": "tradeId",
          "type": "uint256"
        },
        {
          "indexed": false,
          "internalType": "uint256",
          "name": "orderId",
          "type": "uint256"
        },
        {
          "indexed": true,
          "internalType": "bytes32",
          "name": "ticker",
          "type": "bytes32"
        },
        {
          "indexed": true,
          "internalType": "address",
          "name": "trader1",
          "type": "address"
        },
        {
          "indexed": true,
          "internalType": "address",
          "name": "trader2",
          "type": "address"
        },
        {
          "indexed": false,
          "internalType": "uint256",
          "name": "amount",
          "type": "uint256"
        },
        {
          "indexed": false,
          "internalType": "uint256",
          "name": "price",
          "type": "uint256"
        }
      ],
      "name": "NewTrade",
      "type": "event"
    },
    {
      "inputs": [],
      "name": "admin",
      "outputs": [
        {
          "internalType": "address",
          "name": "",
          "type": "address"
        }
      ],
      "stateMutability": "view",
      "type": "function",
      "constant": true
    },
    {
      "inputs": [],
      "name": "nextOrderId",
      "outputs": [
        {
          "internalType": "uint256",
          "name": "",
          "type": "uint256"
        }
      ],
      "stateMutability": "view",
      "type": "function",
      "constant": true
    },
    {
      "inputs": [],
      "name": "nextTradeId",
      "outputs": [
        {
          "internalType": "uint256",
          "name": "",
          "type": "uint256"
        }
      ],
      "stateMutability": "view",
      "type": "function",
      "constant": true
    },
    {
      "inputs": [
        {
          "internalType": "bytes32",
          "name": "",
          "type": "bytes32"
        },
        {
          "internalType": "uint256",
          "name": "",
          "type": "uint256"
        },
        {
          "internalType": "uint256",
          "name": "",
          "type": "uint256"
        }
      ],
      "name": "orderBook",
      "outputs": [
        {
          "internalType": "uint256",
          "name": "id",
          "type": "uint256"
        },
        {
          "internalType": "address",
          "name": "trader",
          "type": "address"
        },
        {
          "internalType": "enum Dex.Side",
          "name": "side",
          "type": "uint8"
        },
        {
          "internalType": "bytes32",
          "name": "ticker",
          "type": "bytes32"
        },
        {
          "internalType": "uint256",
          "name": "amount",
          "type": "uint256"
        },
        {
          "internalType": "uint256",
          "name": "filled",
          "type": "uint256"
        },
        {
          "internalType": "uint256",
          "name": "price",
          "type": "uint256"
        },
        {
          "internalType": "uint256",
          "name": "date",
          "type": "uint256"
        }
      ],
      "stateMutability": "view",
      "type": "function",
      "constant": true
    },
    {
      "inputs": [
        {
          "internalType": "uint256",
          "name": "",
          "type": "uint256"
        }
      ],
      "name": "tokenList",
      "outputs": [
        {
          "internalType": "bytes32",
          "name": "",
          "type": "bytes32"
        }
      ],
      "stateMutability": "view",
      "type": "function",
      "constant": true
    },
    {
      "inputs": [
        {
          "internalType": "bytes32",
          "name": "",
          "type": "bytes32"
        }
      ],
      "name": "tokens",
      "outputs": [
        {
          "internalType": "bytes32",
          "name": "ticker",
          "type": "bytes32"
        },
        {
          "internalType": "address",
          "name": "tokenAddress",
          "type": "address"
        }
      ],
      "stateMutability": "view",
      "type": "function",
      "constant": true
    },
    {
      "inputs": [
        {
          "internalType": "address",
          "name": "",
          "type": "address"
        },
        {
          "internalType": "bytes32",
          "name": "",
          "type": "bytes32"
        }
      ],
      "name": "traderBalances",
      "outputs": [
        {
          "internalType": "uint256",
          "name": "",
          "type": "uint256"
        }
      ],
      "stateMutability": "view",
      "type": "function",
      "constant": true
    },
    {
      "inputs": [
        {
          "internalType": "bytes32",
          "name": "ticker",
          "type": "bytes32"
        },
        {
          "internalType": "enum Dex.Side",
          "name": "side",
          "type": "uint8"
        }
      ],
      "name": "getOrders",
      "outputs": [
        {
          "components": [
            {
              "internalType": "uint256",
              "name": "id",
              "type": "uint256"
            },
            {
              "internalType": "address",
              "name": "trader",
              "type": "address"
            },
            {
              "internalType": "enum Dex.Side",
              "name": "side",
              "type": "uint8"
            },
            {
              "internalType": "bytes32",
              "name": "ticker",
              "type": "bytes32"
            },
            {
              "internalType": "uint256",
              "name": "amount",
              "type": "uint256"
            },
            {
              "internalType": "uint256",
              "name": "filled",
              "type": "uint256"
            },
            {
              "internalType": "uint256",
              "name": "price",
              "type": "uint256"
            },
            {
              "internalType": "uint256",
              "name": "date",
              "type": "uint256"
            }
          ],
          "internalType": "struct Dex.Order[]",
          "name": "",
          "type": "tuple[]"
        }
      ],
      "stateMutability": "view",
      "type": "function",
      "constant": true
    },
    {
      "inputs": [
        {
          "internalType": "bytes32",
          "name": "ticker",
          "type": "bytes32"
        },
        {
          "internalType": "address",
          "name": "tokenAddress",
          "type": "address"
        }
      ],
      "name": "addToken",
      "outputs": [],
      "stateMutability": "nonpayable",
      "type": "function"
    },
    {
      "inputs": [
        {
          "internalType": "uint256",
          "name": "amount",
          "type": "uint256"
        },
        {
          "internalType": "bytes32",
          "name": "ticker",
          "type": "bytes32"
        }
      ],
      "name": "deposit",
      "outputs": [],
      "stateMutability": "nonpayable",
      "type": "function"
    },
    {
      "inputs": [
        {
          "internalType": "uint256",
          "name": "amount",
          "type": "uint256"
        },
        {
          "internalType": "bytes32",
          "name": "ticker",
          "type": "bytes32"
        }
      ],
      "name": "withdraw",
      "outputs": [],
      "stateMutability": "nonpayable",
      "type": "function"
    },
    {
      "inputs": [
        {
          "internalType": "bytes32",
          "name": "ticker",
          "type": "bytes32"
        },
        {
          "internalType": "uint256",
          "name": "amount",
          "type": "uint256"
        },
        {
          "internalType": "uint256",
          "name": "price",
          "type": "uint256"
        },
        {
          "internalType": "enum Dex.Side",
          "name": "side",
          "type": "uint8"
        }
      ],
      "name": "createLimitOrder",
      "outputs": [],
      "stateMutability": "nonpayable",
      "type": "function"
    },
    {
      "inputs": [
        {
          "internalType": "bytes32",
          "name": "ticker",
          "type": "bytes32"
        },
        {
          "internalType": "uint256",
          "name": "amount",
          "type": "uint256"
        },
        {
          "internalType": "enum Dex.Side",
          "name": "side",
          "type": "uint8"
        }
      ],
      "name": "createMarketOrder",
      "outputs": [],
      "stateMutability": "nonpayable",
      "type": "function"
    }
  ],
  "bytecode": "0x608060405234801561001057600080fd5b5033600460006101000a81548173ffffffffffffffffffffffffffffffffffffffff021916908373ffffffffffffffffffffffffffffffffffffffff160217905550612fe8806100616000396000f3fe608060405234801561001057600080fd5b50600436106100cf5760003560e01c8063904194a31161008c578063a8d2021a11610066578063a8d2021a14610240578063c9630cb01461025c578063d9c0c95014610278578063f851a44014610294576100cf565b8063904194a3146101c35780639776aacf146101f45780639ead722214610210576100cf565b80630bb431b6146100d45780632a58b3301461010b57806346e9658b1461012957806372ce957e146101595780637f2c624614610189578063813ad083146101a5575b600080fd5b6100ee60048036036100e991908101906125fc565b6102b2565b604051610102989796959493929190612d30565b60405180910390f35b61011361034e565b6040516101209190612d15565b60405180910390f35b610143600480360361013e9190810190612571565b610354565b6040516101509190612b8d565b60405180910390f35b610173600480360361016e91908101906124a7565b6104a3565b6040516101809190612d15565b60405180910390f35b6101a3600480360361019e91908101906125ad565b6104c8565b005b6101ad6113ad565b6040516101ba9190612d15565b60405180910390f35b6101dd60048036036101d8919081019061250c565b6113b3565b6040516101eb929190612bca565b60405180910390f35b61020e60048036036102099190810190612535565b6113f7565b005b61022a600480360361022591908101906126ae565b611545565b6040516102379190612baf565b60405180910390f35b61025a600480360361025591908101906126d7565b611566565b005b610276600480360361027191908101906126d7565b61181e565b005b610292600480360361028d919081019061264b565b611a45565b005b61029c612245565b6040516102a99190612b12565b60405180910390f35b600360205282600052604060002060205281600052604060002081815481106102d757fe5b906000526020600020906007020160009250925050508060000154908060010160009054906101000a900473ffffffffffffffffffffffffffffffffffffffff16908060010160149054906101000a900460ff16908060020154908060030154908060040154908060050154908060060154905088565b60055481565b606060036000848152602001908152602001600020600083600181111561037757fe5b8152602001908152602001600020805480602002602001604051908101604052809291908181526020016000905b82821015610497578382906000526020600020906007020160405180610100016040529081600082015481526020016001820160009054906101000a900473ffffffffffffffffffffffffffffffffffffffff1673ffffffffffffffffffffffffffffffffffffffff1673ffffffffffffffffffffffffffffffffffffffff1681526020016001820160149054906101000a900460ff16600181111561044757fe5b600181111561045257fe5b815260200160028201548152602001600382015481526020016004820154815260200160058201548152602001600682015481525050815260200190600101906103a5565b50505050905092915050565b6002602052816000526040600020602052806000526040600020600091509150505481565b827f444149000000000000000000000000000000000000000000000000000000000081141561052c576040517f08c379a000000000000000000000000000000000000000000000000000000000815260040161052390612c75565b60405180910390fd5b83600073ffffffffffffffffffffffffffffffffffffffff1660008083815260200190815260200160002060010160009054906101000a900473ffffffffffffffffffffffffffffffffffffffff1673ffffffffffffffffffffffffffffffffffffffff1614156105d2576040517f08c379a00000000000000000000000000000000000000000000000000000000081526004016105c990612cf5565b60405180910390fd5b600060018111156105df57fe5b8360018111156105eb57fe5b14156106855783600260003373ffffffffffffffffffffffffffffffffffffffff1673ffffffffffffffffffffffffffffffffffffffff1681526020019081526020016000206000878152602001908152602001600020541015610684576040517f08c379a000000000000000000000000000000000000000000000000000000000815260040161067b90612cd5565b60405180910390fd5b5b60006003600087815260200190815260200160002060008060018111156106a857fe5b8660018111156106b457fe5b146106c05760006106c3565b60015b60018111156106ce57fe5b81526020019081526020016000209050600080905060008690505b8280549050821080156106fc5750600081115b1561116e57600061075084848154811061071257fe5b90600052602060002090600702016004015485858154811061073057fe5b90600052602060002090600702016003015461226b90919063ffffffff16565b905060008183116107615782610763565b815b9050610778818461226b90919063ffffffff16565b92506107aa8186868154811061078a57fe5b9060005260206000209060070201600401546122b590919063ffffffff16565b8585815481106107b657fe5b9060005260206000209060070201600401819055503373ffffffffffffffffffffffffffffffffffffffff168585815481106107ee57fe5b906000526020600020906007020160010160009054906101000a900473ffffffffffffffffffffffffffffffffffffffff1673ffffffffffffffffffffffffffffffffffffffff168b7fb5e502b4f2e88f995da5d4886c3e1cd36d14a4021eb6191faa1ca941c4a627ed60065489898154811061086757fe5b906000526020600020906007020160000154868b8b8154811061088657fe5b9060005260206000209060070201600501546040516108a89493929190612dae565b60405180910390a46001808111156108bc57fe5b8860018111156108c857fe5b1415610c895761093181600260003373ffffffffffffffffffffffffffffffffffffffff1673ffffffffffffffffffffffffffffffffffffffff16815260200190815260200160002060008d81526020019081526020016000205461226b90919063ffffffff16565b600260003373ffffffffffffffffffffffffffffffffffffffff1673ffffffffffffffffffffffffffffffffffffffff16815260200190815260200160002060008c815260200190815260200160002081905550610a376109b886868154811061099757fe5b9060005260206000209060070201600501548361230a90919063ffffffff16565b600260003373ffffffffffffffffffffffffffffffffffffffff1673ffffffffffffffffffffffffffffffffffffffff16815260200190815260200160002060007f44414900000000000000000000000000000000000000000000000000000000008152602001908152602001600020546122b590919063ffffffff16565b600260003373ffffffffffffffffffffffffffffffffffffffff1673ffffffffffffffffffffffffffffffffffffffff16815260200190815260200160002060007f4441490000000000000000000000000000000000000000000000000000000000815260200190815260200160002081905550610b0e81600260003373ffffffffffffffffffffffffffffffffffffffff1673ffffffffffffffffffffffffffffffffffffffff16815260200190815260200160002060008d8152602001908152602001600020546122b590919063ffffffff16565b600260003373ffffffffffffffffffffffffffffffffffffffff1673ffffffffffffffffffffffffffffffffffffffff16815260200190815260200160002060008c815260200190815260200160002081905550610c14610b95868681548110610b7457fe5b9060005260206000209060070201600501548361230a90919063ffffffff16565b600260003373ffffffffffffffffffffffffffffffffffffffff1673ffffffffffffffffffffffffffffffffffffffff16815260200190815260200160002060007f444149000000000000000000000000000000000000000000000000000000000081526020019081526020016000205461226b90919063ffffffff16565b600260003373ffffffffffffffffffffffffffffffffffffffff1673ffffffffffffffffffffffffffffffffffffffff16815260200190815260200160002060007f44414900000000000000000000000000000000000000000000000000000000008152602001908152602001600020819055505b60006001811115610c9657fe5b886001811115610ca257fe5b141561113557848481548110610cb457fe5b9060005260206000209060070201600501548102600260003373ffffffffffffffffffffffffffffffffffffffff1673ffffffffffffffffffffffffffffffffffffffff16815260200190815260200160002060007f44414900000000000000000000000000000000000000000000000000000000008152602001908152602001600020541015610d7a576040517f08c379a0000000000000000000000000000000000000000000000000000000008152600401610d7190612c35565b60405180910390fd5b610ddd81600260003373ffffffffffffffffffffffffffffffffffffffff1673ffffffffffffffffffffffffffffffffffffffff16815260200190815260200160002060008d8152602001908152602001600020546122b590919063ffffffff16565b600260003373ffffffffffffffffffffffffffffffffffffffff1673ffffffffffffffffffffffffffffffffffffffff16815260200190815260200160002060008c815260200190815260200160002081905550610ee3610e64868681548110610e4357fe5b9060005260206000209060070201600501548361230a90919063ffffffff16565b600260003373ffffffffffffffffffffffffffffffffffffffff1673ffffffffffffffffffffffffffffffffffffffff16815260200190815260200160002060007f444149000000000000000000000000000000000000000000000000000000000081526020019081526020016000205461226b90919063ffffffff16565b600260003373ffffffffffffffffffffffffffffffffffffffff1673ffffffffffffffffffffffffffffffffffffffff16815260200190815260200160002060007f4441490000000000000000000000000000000000000000000000000000000000815260200190815260200160002081905550610fba81600260003373ffffffffffffffffffffffffffffffffffffffff1673ffffffffffffffffffffffffffffffffffffffff16815260200190815260200160002060008d81526020019081526020016000205461226b90919063ffffffff16565b600260003373ffffffffffffffffffffffffffffffffffffffff1673ffffffffffffffffffffffffffffffffffffffff16815260200190815260200160002060008c8152602001908152602001600020819055506110c061104186868154811061102057fe5b9060005260206000209060070201600501548361230a90919063ffffffff16565b600260003373ffffffffffffffffffffffffffffffffffffffff1673ffffffffffffffffffffffffffffffffffffffff16815260200190815260200160002060007f44414900000000000000000000000000000000000000000000000000000000008152602001908152602001600020546122b590919063ffffffff16565b600260003373ffffffffffffffffffffffffffffffffffffffff1673ffffffffffffffffffffffffffffffffffffffff16815260200190815260200160002060007f44414900000000000000000000000000000000000000000000000000000000008152602001908152602001600020819055505b61114b60016006546122b590919063ffffffff16565b6006819055506111656001856122b590919063ffffffff16565b935050506106e9565b600091505b8280549050821080156111bf575082828154811061118d57fe5b9060005260206000209060070201600301548383815481106111ab57fe5b906000526020600020906007020160040154145b156113a35760008290505b60018480549050038110156112f9578360018201815481106111e857fe5b906000526020600020906007020184828154811061120257fe5b9060005260206000209060070201600082015481600001556001820160009054906101000a900473ffffffffffffffffffffffffffffffffffffffff168160010160006101000a81548173ffffffffffffffffffffffffffffffffffffffff021916908373ffffffffffffffffffffffffffffffffffffffff1602179055506001820160149054906101000a900460ff168160010160146101000a81548160ff021916908360018111156112b257fe5b0217905550600282015481600201556003820154816003015560048201548160040155600582015481600501556006820154816006015590505080806001019150506111ca565b508280548061130457fe5b60019003818190600052602060002090600702016000808201600090556001820160006101000a81549073ffffffffffffffffffffffffffffffffffffffff02191690556001820160146101000a81549060ff0219169055600282016000905560038201600090556004820160009055600582016000905560068201600090555050905561139c6001836122b590919063ffffffff16565b9150611173565b5050505050505050565b60065481565b60006020528060005260406000206000915090508060000154908060010160009054906101000a900473ffffffffffffffffffffffffffffffffffffffff16905082565b600460009054906101000a900473ffffffffffffffffffffffffffffffffffffffff1673ffffffffffffffffffffffffffffffffffffffff163373ffffffffffffffffffffffffffffffffffffffff1614611487576040517f08c379a000000000000000000000000000000000000000000000000000000000815260040161147e90612c55565b60405180910390fd5b60405180604001604052808381526020018273ffffffffffffffffffffffffffffffffffffffff168152506000808481526020019081526020016000206000820151816000015560208201518160010160006101000a81548173ffffffffffffffffffffffffffffffffffffffff021916908373ffffffffffffffffffffffffffffffffffffffff16021790555090505060018290806001815401808255809150506001900390600052602060002001600090919091909150555050565b6001818154811061155257fe5b906000526020600020016000915090505481565b80600073ffffffffffffffffffffffffffffffffffffffff1660008083815260200190815260200160002060010160009054906101000a900473ffffffffffffffffffffffffffffffffffffffff1673ffffffffffffffffffffffffffffffffffffffff16141561160c576040517f08c379a000000000000000000000000000000000000000000000000000000000815260040161160390612cf5565b60405180910390fd5b82600260003373ffffffffffffffffffffffffffffffffffffffff1673ffffffffffffffffffffffffffffffffffffffff168152602001908152602001600020600084815260200190815260200160002054101561169f576040517f08c379a000000000000000000000000000000000000000000000000000000000815260040161169690612c95565b60405180910390fd5b61170283600260003373ffffffffffffffffffffffffffffffffffffffff1673ffffffffffffffffffffffffffffffffffffffff16815260200190815260200160002060008581526020019081526020016000205461226b90919063ffffffff16565b600260003373ffffffffffffffffffffffffffffffffffffffff1673ffffffffffffffffffffffffffffffffffffffff16815260200190815260200160002060008481526020019081526020016000208190555060008083815260200190815260200160002060010160009054906101000a900473ffffffffffffffffffffffffffffffffffffffff1673ffffffffffffffffffffffffffffffffffffffff1663a9059cbb33856040518363ffffffff1660e01b81526004016117c6929190612b64565b602060405180830381600087803b1580156117e057600080fd5b505af11580156117f4573d6000803e3d6000fd5b505050506040513d601f19601f8201168201806040525061181891908101906124e3565b50505050565b80600073ffffffffffffffffffffffffffffffffffffffff1660008083815260200190815260200160002060010160009054906101000a900473ffffffffffffffffffffffffffffffffffffffff1673ffffffffffffffffffffffffffffffffffffffff1614156118c4576040517f08c379a00000000000000000000000000000000000000000000000000000000081526004016118bb90612cf5565b60405180910390fd5b60008083815260200190815260200160002060010160009054906101000a900473ffffffffffffffffffffffffffffffffffffffff1673ffffffffffffffffffffffffffffffffffffffff166323b872dd3330866040518463ffffffff1660e01b815260040161193693929190612b2d565b602060405180830381600087803b15801561195057600080fd5b505af1158015611964573d6000803e3d6000fd5b505050506040513d601f19601f8201168201806040525061198891908101906124e3565b506119ec83600260003373ffffffffffffffffffffffffffffffffffffffff1673ffffffffffffffffffffffffffffffffffffffff1681526020019081526020016000206000858152602001908152602001600020546122b590919063ffffffff16565b600260003373ffffffffffffffffffffffffffffffffffffffff1673ffffffffffffffffffffffffffffffffffffffff168152602001908152602001600020600084815260200190815260200160002081905550505050565b837f4441490000000000000000000000000000000000000000000000000000000000811415611aa9576040517f08c379a0000000000000000000000000000000000000000000000000000000008152600401611aa090612c75565b60405180910390fd5b84600073ffffffffffffffffffffffffffffffffffffffff1660008083815260200190815260200160002060010160009054906101000a900473ffffffffffffffffffffffffffffffffffffffff1673ffffffffffffffffffffffffffffffffffffffff161415611b4f576040517f08c379a0000000000000000000000000000000000000000000000000000000008152600401611b4690612cf5565b60405180910390fd5b600180811115611b5b57fe5b836001811115611b6757fe5b1415611c055784600260003373ffffffffffffffffffffffffffffffffffffffff1673ffffffffffffffffffffffffffffffffffffffff1681526020019081526020016000206000888152602001908152602001600020541015611c00576040517f08c379a0000000000000000000000000000000000000000000000000000000008152600401611bf790612cd5565b60405180910390fd5b611ccb565b611c18848661230a90919063ffffffff16565b600260003373ffffffffffffffffffffffffffffffffffffffff1673ffffffffffffffffffffffffffffffffffffffff16815260200190815260200160002060007f44414900000000000000000000000000000000000000000000000000000000008152602001908152602001600020541015611cca576040517f08c379a0000000000000000000000000000000000000000000000000000000008152600401611cc190612c35565b60405180910390fd5b5b6000600360008881526020019081526020016000206000856001811115611cee57fe5b815260200190815260200160002090508060405180610100016040528060055481526020013373ffffffffffffffffffffffffffffffffffffffff168152602001866001811115611d3b57fe5b8152602001898152602001888152602001600081526020018781526020014281525090806001815401808255809150506001900390600052602060002090600702016000909190919091506000820151816000015560208201518160010160006101000a81548173ffffffffffffffffffffffffffffffffffffffff021916908373ffffffffffffffffffffffffffffffffffffffff16021790555060408201518160010160146101000a81548160ff02191690836001811115611dfb57fe5b0217905550606082015181600201556080820151816003015560a0820151816004015560c0820151816005015560e082015181600601555050600080828054905011611e48576000611e51565b60018280549050035b90505b600081111561221f5760006001811115611e6a57fe5b856001811115611e7657fe5b148015611ebf5750818181548110611e8a57fe5b906000526020600020906007020160050154826001830381548110611eab57fe5b906000526020600020906007020160050154115b15611ec95761221f565b600180811115611ed557fe5b856001811115611ee157fe5b148015611f2a5750818181548110611ef557fe5b906000526020600020906007020160050154826001830381548110611f1657fe5b906000526020600020906007020160050154105b15611f345761221f565b611f3c6123d5565b826001830381548110611f4b57fe5b906000526020600020906007020160405180610100016040529081600082015481526020016001820160009054906101000a900473ffffffffffffffffffffffffffffffffffffffff1673ffffffffffffffffffffffffffffffffffffffff1673ffffffffffffffffffffffffffffffffffffffff1681526020016001820160149054906101000a900460ff166001811115611fe357fe5b6001811115611fee57fe5b815260200160028201548152602001600382015481526020016004820154815260200160058201548152602001600682015481525050905082828154811061203257fe5b906000526020600020906007020183600184038154811061204f57fe5b9060005260206000209060070201600082015481600001556001820160009054906101000a900473ffffffffffffffffffffffffffffffffffffffff168160010160006101000a81548173ffffffffffffffffffffffffffffffffffffffff021916908373ffffffffffffffffffffffffffffffffffffffff1602179055506001820160149054906101000a900460ff168160010160146101000a81548160ff021916908360018111156120ff57fe5b021790555060028201548160020155600382015481600301556004820154816004015560058201548160050155600682015481600601559050508083838154811061214657fe5b90600052602060002090600702016000820151816000015560208201518160010160006101000a81548173ffffffffffffffffffffffffffffffffffffffff021916908373ffffffffffffffffffffffffffffffffffffffff16021790555060408201518160010160146101000a81548160ff021916908360018111156121c957fe5b0217905550606082015181600201556080820151816003015560a0820151816004015560c0820151816005015560e0820151816006015590505061221760018361226b90919063ffffffff16565b915050611e54565b61223560016005546122b590919063ffffffff16565b6005819055505050505050505050565b600460009054906101000a900473ffffffffffffffffffffffffffffffffffffffff1681565b60006122ad83836040518060400160405280601e81526020017f536166654d6174683a207375627472616374696f6e206f766572666c6f77000081525061237a565b905092915050565b600080828401905083811015612300576040517f08c379a00000000000000000000000000000000000000000000000000000000081526004016122f790612c15565b60405180910390fd5b8091505092915050565b60008083141561231d5760009050612374565b600082840290508284828161232e57fe5b041461236f576040517f08c379a000000000000000000000000000000000000000000000000000000000815260040161236690612cb5565b60405180910390fd5b809150505b92915050565b60008383111582906123c2576040517f08c379a00000000000000000000000000000000000000000000000000000000081526004016123b99190612bf3565b60405180910390fd5b5060008385039050809150509392505050565b60405180610100016040528060008152602001600073ffffffffffffffffffffffffffffffffffffffff1681526020016000600181111561241257fe5b815260200160008019168152602001600081526020016000815260200160008152602001600081525090565b60008135905061244d81612f46565b92915050565b60008151905061246281612f5d565b92915050565b60008135905061247781612f74565b92915050565b60008135905061248c81612f8b565b92915050565b6000813590506124a181612f9b565b92915050565b600080604083850312156124ba57600080fd5b60006124c88582860161243e565b92505060206124d985828601612468565b9150509250929050565b6000602082840312156124f557600080fd5b600061250384828501612453565b91505092915050565b60006020828403121561251e57600080fd5b600061252c84828501612468565b91505092915050565b6000806040838503121561254857600080fd5b600061255685828601612468565b92505060206125678582860161243e565b9150509250929050565b6000806040838503121561258457600080fd5b600061259285828601612468565b92505060206125a38582860161247d565b9150509250929050565b6000806000606084860312156125c257600080fd5b60006125d086828701612468565b93505060206125e186828701612492565b92505060406125f28682870161247d565b9150509250925092565b60008060006060848603121561261157600080fd5b600061261f86828701612468565b935050602061263086828701612492565b925050604061264186828701612492565b9150509250925092565b6000806000806080858703121561266157600080fd5b600061266f87828801612468565b945050602061268087828801612492565b935050604061269187828801612492565b92505060606126a28782880161247d565b91505092959194509250565b6000602082840312156126c057600080fd5b60006126ce84828501612492565b91505092915050565b600080604083850312156126ea57600080fd5b60006126f885828601612492565b925050602061270985828601612468565b9150509250929050565b600061271f8383612a52565b6101008301905092915050565b61273581612ead565b82525050565b61274481612e48565b82525050565b61275381612e48565b82525050565b600061276482612e03565b61276e8185612e26565b935061277983612df3565b8060005b838110156127aa5781516127918882612713565b975061279c83612e19565b92505060018101905061277d565b5085935050505092915050565b6127c081612e66565b82525050565b6127cf81612e66565b82525050565b6127de81612ebf565b82525050565b6127ed81612ebf565b82525050565b60006127fe82612e0e565b6128088185612e37565b9350612818818560208601612ef5565b61282181612f28565b840191505092915050565b6000612839601b83612e37565b91507f536166654d6174683a206164646974696f6e206f766572666c6f7700000000006000830152602082019050919050565b6000612879600e83612e37565b91507f6e6f7420656e6f756768204441490000000000000000000000000000000000006000830152602082019050919050565b60006128b9600a83612e37565b91507f6f6e6c792061646d696e000000000000000000000000000000000000000000006000830152602082019050919050565b60006128f9601083612e37565b91507f63616e6e6f7420747261646520444149000000000000000000000000000000006000830152602082019050919050565b6000612939600e83612e37565b91507f62616c616e636520746f206c6f770000000000000000000000000000000000006000830152602082019050919050565b6000612979602183612e37565b91507f536166654d6174683a206d756c7469706c69636174696f6e206f766572666c6f60008301527f77000000000000000000000000000000000000000000000000000000000000006020830152604082019050919050565b60006129df601583612e37565b91507f746f6b656e2062616c616e636520746f6f206c6f7700000000000000000000006000830152602082019050919050565b6000612a1f601483612e37565b91507f746f6b656e20646f6573206e6f742065786973740000000000000000000000006000830152602082019050919050565b61010082016000820151612a696000850182612af4565b506020820151612a7c602085018261273b565b506040820151612a8f60408501826127d5565b506060820151612aa260608501826127b7565b506080820151612ab56080850182612af4565b5060a0820151612ac860a0850182612af4565b5060c0820151612adb60c0850182612af4565b5060e0820151612aee60e0850182612af4565b50505050565b612afd81612ea3565b82525050565b612b0c81612ea3565b82525050565b6000602082019050612b27600083018461274a565b92915050565b6000606082019050612b42600083018661272c565b612b4f602083018561274a565b612b5c6040830184612b03565b949350505050565b6000604082019050612b79600083018561272c565b612b866020830184612b03565b9392505050565b60006020820190508181036000830152612ba78184612759565b905092915050565b6000602082019050612bc460008301846127c6565b92915050565b6000604082019050612bdf60008301856127c6565b612bec602083018461274a565b9392505050565b60006020820190508181036000830152612c0d81846127f3565b905092915050565b60006020820190508181036000830152612c2e8161282c565b9050919050565b60006020820190508181036000830152612c4e8161286c565b9050919050565b60006020820190508181036000830152612c6e816128ac565b9050919050565b60006020820190508181036000830152612c8e816128ec565b9050919050565b60006020820190508181036000830152612cae8161292c565b9050919050565b60006020820190508181036000830152612cce8161296c565b9050919050565b60006020820190508181036000830152612cee816129d2565b9050919050565b60006020820190508181036000830152612d0e81612a12565b9050919050565b6000602082019050612d2a6000830184612b03565b92915050565b600061010082019050612d46600083018b612b03565b612d53602083018a61274a565b612d6060408301896127e4565b612d6d60608301886127c6565b612d7a6080830187612b03565b612d8760a0830186612b03565b612d9460c0830185612b03565b612da160e0830184612b03565b9998505050505050505050565b6000608082019050612dc36000830187612b03565b612dd06020830186612b03565b612ddd6040830185612b03565b612dea6060830184612b03565b95945050505050565b6000819050602082019050919050565b600081519050919050565b600081519050919050565b6000602082019050919050565b600082825260208201905092915050565b600082825260208201905092915050565b6000612e5382612e83565b9050919050565b60008115159050919050565b6000819050919050565b6000819050612e7e82612f39565b919050565b600073ffffffffffffffffffffffffffffffffffffffff82169050919050565b6000819050919050565b6000612eb882612ed1565b9050919050565b6000612eca82612e70565b9050919050565b6000612edc82612ee3565b9050919050565b6000612eee82612e83565b9050919050565b60005b83811015612f13578082015181840152602081019050612ef8565b83811115612f22576000848401525b50505050565b6000601f19601f8301169050919050565b60028110612f4357fe5b50565b612f4f81612e48565b8114612f5a57600080fd5b50565b612f6681612e5a565b8114612f7157600080fd5b50565b612f7d81612e66565b8114612f8857600080fd5b50565b60028110612f9857600080fd5b50565b612fa481612ea3565b8114612faf57600080fd5b5056fea26469706673582212206df1ac2d6d940d5b76e4fb9f7110845a6e5eb01d12971da452c449bc313c62dd64736f6c63430006030033",
  "source": "pragma solidity 0.6.3;\r\npragma experimental ABIEncoderV2;\r\n\r\nimport '@openzeppelin/contracts/token/ERC20/IERC20.sol';\r\nimport '@openzeppelin/contracts/math/SafeMath.sol';\r\n\r\ncontract Dex{\r\n\r\n    using SafeMath for uint;\r\n\r\n\r\n    struct Token{\r\n        bytes32 ticker;\r\n        address tokenAddress;\r\n    }\r\n\r\n    enum Side {\r\n        BUY,\r\n        SELL\r\n    }\r\n\r\n    struct Order {\r\n        uint id;\r\n        address trader;\r\n        Side side;\r\n        bytes32 ticker;\r\n        uint amount;\r\n        uint filled;\r\n        uint price;\r\n        uint date;\r\n    }\r\n\r\n    mapping(bytes32 => Token) public tokens;\r\n\r\n    bytes32[] public tokenList;\r\n\r\n    mapping(address => mapping(bytes32 => uint)) public traderBalances;\r\n    mapping(bytes32 => mapping(uint => Order[])) public orderBook;\r\n    address public admin;\r\n    uint public nextOrderId;\r\n    uint public nextTradeId;\r\n    bytes32 constant DAI = bytes32('DAI');\r\n\r\n    event NewTrade(uint tradeId, uint orderId, bytes32 indexed ticker, address indexed trader1, address indexed trader2, uint amount, uint price);\r\n\r\n    constructor() public {\r\n        admin = msg.sender;\r\n    }\r\n\r\n    function getOrders(bytes32 ticker, Side side) external view returns(Order[] memory) {\r\n      return orderBook[ticker][uint(side)];\r\n  }\r\n\r\n    function addToken(bytes32 ticker, address tokenAddress) onlyAdmin() external{\r\n        tokens[ticker] = Token(ticker, tokenAddress);\r\n        tokenList.push(ticker);\r\n    }\r\n\r\n    function deposit(uint amount, bytes32 ticker) tokenExists(ticker) external{\r\n        IERC20(tokens[ticker].tokenAddress).transferFrom(\r\n            msg.sender,\r\n            address(this),\r\n            amount\r\n        );\r\n        traderBalances[msg.sender][ticker] = traderBalances[msg.sender][ticker].add(amount);\r\n    }\r\n\r\n    function withdraw(uint amount, bytes32 ticker) tokenExists(ticker) external {\r\n        require(traderBalances[msg.sender][ticker] >= amount, 'balance to low');\r\n        traderBalances[msg.sender][ticker] = traderBalances[msg.sender][ticker].sub(amount);\r\n        IERC20(tokens[ticker].tokenAddress).transfer(msg.sender, amount);\r\n    }\r\n\r\n    function createLimitOrder(bytes32 ticker, uint amount, uint price, Side side) tokenIsntDai(ticker) tokenExists(ticker) external {\r\n\r\n        if(side == Side.SELL) {\r\n            require(traderBalances[msg.sender][ticker] >= amount, 'token balance too low');\r\n        } else {\r\n            require(traderBalances[msg.sender][DAI] >= amount.mul(price), 'not enough DAI');\r\n        }\r\n\r\n        Order[] storage orders = orderBook[ticker][uint(side)];\r\n        orders.push(Order(\r\n            nextOrderId,\r\n            msg.sender,\r\n            side,\r\n            ticker,\r\n            amount,\r\n            0,\r\n            price,\r\n            now\r\n        ));\r\n\r\n        uint i = orders.length > 0 ? orders.length -1 : 0;\r\n        while (i>0){\r\n            if (side == Side.BUY && orders[i-1].price > orders[i].price) {\r\n                break;\r\n            }\r\n            if (side == Side.SELL && orders[i-1].price < orders[i].price){\r\n                break;\r\n            }\r\n            Order memory order = orders[i - 1];\r\n            orders[i-1] = orders[i];\r\n            orders[i] = order;\r\n            i= i.sub(1);\r\n        }\r\n        nextOrderId = nextOrderId.add(1);\r\n    }\r\n\r\n\r\n    function createMarketOrder(bytes32 ticker, uint amount, Side side) tokenIsntDai(ticker) tokenExists(ticker) external{\r\n\r\n        if (side == Side.BUY) {\r\n              require(traderBalances[msg.sender][ticker] >= amount, 'token balance too low');\r\n        }\r\n\r\n        Order[] storage orders = orderBook[ticker][uint (side == Side.BUY ? Side.SELL : Side.BUY)];\r\n        uint i=0;\r\n        uint remaining = amount;\r\n\r\n        while(i< orders.length && remaining > 0){\r\n            uint available = orders[i].amount.sub(orders[i].filled);\r\n            uint matched = (remaining > available) ? available : remaining;\r\n            remaining = remaining.sub(matched);\r\n            orders[i].filled = orders[i].filled.add(matched);\r\n            emit NewTrade(\r\n                nextTradeId,\r\n                orders[i].id,\r\n                ticker,\r\n                orders[i].trader,\r\n                msg.sender,\r\n                matched,\r\n                orders[i].price\r\n            );\r\n\r\n            if(side == Side.SELL){\r\n\r\n                traderBalances[msg.sender][ticker] = traderBalances[msg.sender][ticker].sub(matched);\r\n                traderBalances[msg.sender][DAI] =  traderBalances[msg.sender][DAI].add(matched.mul(orders[i].price));\r\n\r\n                traderBalances[msg.sender][ticker] = traderBalances[msg.sender][ticker].add(matched);\r\n                traderBalances[msg.sender][DAI] =  traderBalances[msg.sender][DAI].sub(matched.mul(orders[i].price));\r\n            }\r\n\r\n            if (side == Side.BUY){\r\n                require(traderBalances[msg.sender][DAI] >= matched * orders[i].price, 'not enough DAI');\r\n\r\n                traderBalances[msg.sender][ticker] = traderBalances[msg.sender][ticker].add(matched);\r\n                traderBalances[msg.sender][DAI] =  traderBalances[msg.sender][DAI].sub(matched.mul(orders[i].price));\r\n\r\n                traderBalances[msg.sender][ticker] = traderBalances[msg.sender][ticker].sub(matched);\r\n                traderBalances[msg.sender][DAI] =  traderBalances[msg.sender][DAI].add(matched.mul(orders[i].price));\r\n            }\r\n            nextTradeId = nextTradeId.add(1);\r\n            i = i.add(1);\r\n        }\r\n\r\n        i = 0;\r\n        while(i < orders.length && orders[i].filled == orders[i].amount){\r\n            for(uint j = i; j < orders.length - 1; j++){\r\n                orders[j] = orders[j+1];\r\n            }\r\n            orders.pop();\r\n            i = i.add(1);\r\n        }\r\n    }\r\n\r\n\r\n\r\n    modifier tokenIsntDai(bytes32 ticker){\r\n        require(ticker != DAI, 'cannot trade DAI');\r\n        _;\r\n    }\r\n\r\n    modifier tokenExists(bytes32 ticker){\r\n        require (\r\n            tokens[ticker].tokenAddress != address(0),\r\n            'token does not exist'\r\n            );\r\n            _;\r\n    }\r\n\r\n    modifier onlyAdmin(){\r\n        require(msg.sender == admin, 'only admin');\r\n        _;\r\n    }\r\n}\r\n",
  "sourcePath": "D:/Benutzer/Pascal/Dokumente/Startup Coding/token_exchange/contracts/Dex.sol",
  "compiler": {
    "name": "solc",
    "version": "0.6.3+commit.8dda9521.Emscripten.clang"
  },
  "schemaVersion": "3.3.2",
  "updatedAt": "2020-12-13T15:02:14.180Z",
  "networkType": "ethereum",
  "devdoc": {
    "methods": {}
  },
  "userdoc": {
    "methods": {}
  }
}